:020000040800F2
:10000000F009002079040008750200087702000852
:1000100000000000000000000000000000000000E0
:100020000000000000000000000000007B0200084B
:1000300000000000000000007D0200087F020008B0
:100040008B0400088B0400088B0400088B04000854
:100050008B0400088B0400088B0400088B04000844
:100060008B0400088B0400088B0400088B04000834
:100070008B0400088B0400088B0400088B04000824
:100080008B0400088B040008000000008B040008AB
:100090008B0400088B0400088B0400088B04000804
:1000A0008B0400088B0400088B0400088B040008F4
:1000B0008B040008000000008B0400080000000012
:1000C00000F002F800F030F80CA030C8083824180E
:1000D0002D18A246671EAB4654465D46AC4201D180
:1000E00000F022F87E460F3E0FCCB6460126334282
:1000F00000D0FB1AA246AB46334318471C2F000022
:100100003C2F00000023002400250026103A01D3D4
:1001100078C1FBD8520700D330C100D50B607047BF
:100120001FB51FBD10B510BD01F088FD1146FFF7CA
:10013000F7FF00F009F801F0A0FD03B4FFF7F2FFAC
:1001400003BC01F0A7FD00001CB5002600F0E2FD95
:1001500000F036FA3D4800F01DFA3C483C49086082
:100160000121C9030920C00600F0FFFE6CE01F203A
:10017000C00220230022114600900A2000F000FB5C
:100180001F20C00220230122002100902D2000F01A
:10019000F7FA1F20C00220230222002100905020E5
:1001A00000F0EEFA1F20C002102300224B21009025
:1001B0000A2000F0E5FA1F20C002102301224B2183
:1001C00000902D2000F0DCFA1F20C0021023022234
:1001D0004B210090502000F0D3FA1F20C0021023C2
:1001E00003224B210090732000F0CAFA1F20C002A6
:1001F000102304224B210090962000F0C1FA1F2307
:10020000DB0214A223210A2000F0ADFC8323272265
:100210005C21002000F056FD15E01F20C0020423E1
:1002200032465F210090502000F009FD304601F079
:10023000C3FC04460D4A0E4B01F08EFC0191009068
:1002400001F0D0FA0646E8E791E70000FFFF000062
:1002500074030020312E3134205446542053504929
:10026000203133352A323430000000007B14AE4791
:10027000E17A843F704700BFFEE7704770477047E0
:100280000CB500200190009073480068012109041A
:1002900008437149086000BF6F48006801214904A4
:1002A000084000900198401C01900098002804D15B
:1002B0000521090201988842EED1674800680121B2
:1002C00049040840002802D00120009001E00020ED
:1002D00000900098012839D11120604908605E48DB
:1002E00040685D4948600846406848600846406884
:1002F0003F21090488435849486008464068112155
:100300000904084354494860084600680121090669
:1003100008435149086000BF4F4800680121490661
:1003200008400028F8D04C484068800880004A49BE
:10033000486008464068022108434749486000BFBA
:10034000454840680C2108400828F9D10CBD10B57B
:1003500041480068012108433F4908600846406859
:100360003F4908403C494860084600683D4908400C
:1003700039490860084600680121890488433649E4
:100380000860084640683F210904884332494860B4
:100390000846C06A00090001C8620846006BFF21D8
:1003A000543188432C4908630846406B400840009C
:1003B000486300208860FFF763FF10BDF8B5002593
:1003C000002400260027244840680C2108400546E8
:1003D000002D04D0042D06D0082D2AD107E0224894
:1003E0002249086029E020482049086025E01A4891
:1003F00040680F21890408400446174840680121DD
:10040000090408400646A00C841C002E04D118489C
:100410006043164908600BE00F48C06A0007000FF0
:10042000471C3946104801F02DF960430F49086018
:1004300003E00D480D49086000BF00BF0648406852
:10044000F021084000090B490D5C08480068E840AD
:1004500006490860F8BD000000100240002002407C
:100460000CB8FFF8FFFFF6FE00127A000000002033
:1004700000093D0004000020074880470748004766
:10048000FEE7FEE7FEE7FEE7FEE7FEE70448054974
:10049000054A064B704700004F030008C1000008E2
:1004A000F0030020F0090020F0050020F0050020F6
:1004B00070B5044610210920C00600F056FD002545
:1004C0001CE001210920C00600F04FFD80202040E3
:1004D000002805D002210920C00600F044FD04E0F8
:1004E00002210920C00600F040FD01210920C006BC
:1004F00000F039FD6006040E681CC5B2082DE0DB73
:1005000010210920C00600F02EFD70BD10B5044674
:1005100008210920C00600F026FD2046FFF7C8FF8D
:1005200010BD10B5044608210920C00600F01BFDCF
:100530002104080EFFF7BCFFE0B2FFF7B9FF10BDC2
:1005400010B5044608210920C00600F00EFD204623
:10055000FFF7AEFF10BDF8B504460D4616461F4620
:100560002A20FFF7EDFF20462830FFF7DAFF30465C
:100570002830FFF7D6FF2B20FFF7E2FF2846343064
:10058000FFF7CFFF38463430FFF7CBFF2C20FFF7C3
:10059000D7FFF8BD70B506468623EF220021084636
:1005A000FFF7D9FF002408E0002503E03046FFF7FD
:1005B000B8FF6D1C872DF9D3641CF02CF4D370BDEB
:1005C0001CB50121480400F084FFFE480090012181
:1005D0006846417101710021817169460920C00698
:1005E00000F044FCF7490920C00600F0BCFC0421DF
:1005F0000920C00600F0B9FCC82000F0C6FB0421A9
:100600000920C00600F0AFFCFF202D3000F0BDFB3C
:100610003620FFF795FFA020FFF778FF3A20FFF77D
:100620008FFF0520FFF772FFB220FFF789FF0C2034
:10063000FFF76CFF0C20FFF769FF0020FFF766FF54
:100640003320FFF763FF3320FFF760FFB720FFF78A
:1006500077FF3520FFF75AFFBB20FFF771FF192006
:10066000FFF754FFC020FFF76BFF2C20FFF74EFF72
:10067000C220FFF765FF0120FFF748FFC320FFF707
:100680005FFF1220FFF742FFC420FFF759FF202031
:10069000FFF73CFFC620FFF753FF0F20FFF736FFA1
:1006A000D020FFF74DFFA420FFF730FFA120FFF778
:1006B0002DFFE020FFF744FFD020FFF727FF0420A5
:1006C000FFF724FF0D20FFF721FF1120FFF71EFF8A
:1006D0001320FFF71BFF2B20FFF718FF3F20FFF72A
:1006E00015FF5420FFF712FF4C20FFF70FFF1820D3
:1006F000FFF70CFF0D20FFF709FF0B20FFF706FFA8
:100700001F20FFF703FF2320FFF700FFE120FFF783
:1007100017FFD020FFF7FAFE0420FFF7F7FE0C20AA
:10072000FFF7F4FE1120FFF7F1FE1320FFF7EEFEB6
:100730002C20FFF7EBFE3F20FFF7E8FE4420FFF7F9
:10074000E5FE5120FFF7E2FE2F20FFF7DFFE1F201E
:10075000FFF7DCFE1F20FFF7D9FE2020FFF7D6FEB3
:100760002320FFF7D3FE2120FFF7EAFE1120FFF739
:10077000E7FE2920FFF7E4FE9348FFF70BFF1CBDBF
:10078000FFB581B01C46102C00D1904D202C00D11B
:100790008F4D02980019431E01980019421E0299BC
:1007A0000198FFF7D8FE214661430846C917490F53
:1007B00009184905090E00910099039848432D181E
:1007C000002716E000260FE028780121B1400840FC
:1007D000002803D00A98FFF7A4FE03E07D480068D4
:1007E000FFF79FFE701CC6B2082EEDDB6D1C781C57
:1007F000C7B200988742E5DB05B0F0BDFFB585B014
:100800001C460E9D102C02D1102D00D16F4E202CB5
:1008100002D1202D00D16E4E2046E217520F121841
:10082000D2102146E3175B0F5B18DB10DB00E31AE5
:10083000D218002A01D0012200E00022039206987B
:100840004019431E039AD10005980818401E02461D
:10085000019006990598FFF77EFE03986843029081
:1008600002990798484336180020049018E00027A2
:100870000FE030780121B9400840002803D00F98DC
:10088000FFF74FFE03E053480068FFF74AFE781C6D
:10089000C7B2082FEDDB761C0498401CC0B2049050
:1008A000029904988842E2D309B0F0BD70B50446BD
:1008B0000D4616462B46224629462046FFF74BFE9C
:1008C0003046FFF72EFE70BDFEB504460D461646B7
:1008D0001F463B46324629462046FFF73CFE01951F
:1008E0000DE0009405E00898FFF71BFE0098401CFF
:1008F00000900098B042F6D90198401C01900198F0
:10090000B842EED9FEBDF8B504460D461646691E3E
:10091000601E6B1C621C0096FFF7D6FFF8BDFFB58A
:1009200087B000200590049007990998441A089907
:100930000A98461A0798029008980190002C01DD49
:10094000012706E0002C01D1002702E00027FF4329
:100950006442002E02DD0120039008E0002E02D147
:100960000020039003E00020C04303906642B4429D
:1009700001DD254600E035460020069020E0109A73
:1009800001990298FFF792FF0598001905900498C5
:10099000801904900598A84205DD0598401B059034
:1009A0000298C01902900498A84206DD0498401BE2
:1009B000049003990198401801900698401C0690F5
:1009C000691C09E07F800000FFFF00009402002006
:1009D000140000207403002006988842CFD30BB087
:1009E000F0BDFFB581B005460E4617460A9C33465A
:1009F0003A46314628460094FFF791FF00942A4674
:100A000031462846049BFFF78AFF00943A46049B30
:100A100019462846FFF783FF00943A463146384688
:100A2000049BFFF77CFF05B0F0BDFFB581B0064623
:100A30000F460024039D32E0391B701B049AFFF718
:100A400035FF391B7019049AFFF730FF7919301BF5
:100A5000049AFFF72BFF791B301B049AFFF726FF40
:100A600039197019049AFFF721FF791B3019049A7C
:100A7000FFF71CFF79193019049AFFF717FF39198E
:100A8000701B049AFFF712FF641C2046604329463E
:100A90006943411803984043814200DD6D1EAC421A
:100AA000CADD05B0F0BDFFB583B005460E46019521
:100AB000E02D01D8772E01D907B0F0BD0598203878
:100AC000C0B2059033460F33EA1D31462846FFF782
:100AD00042FD0698002825D1002420E00598000159
:100AE00000198849085C0290002712E00298C007AC
:100AF000C00F002803D00C98FFF713FD03E08248D5
:100B00000068FFF70EFD0298401002906D1C781CE3
:100B1000C7B2082FEADB019D761C601CC4B2102C02
:100B2000DCDB1EE000241AE005980001001975497D
:100B3000085C029000270EE00298C007C00F002852
:100B400004D03119E8190C9AFFF7B0FE0298401052
:100B50000290781CC7B2082FEEDB601CC4B2102CC8
:100B6000E2DB00BFA8E7F8B505460E4614461F466F
:100B700015E0E02D01D900251036772E06D900208A
:100B8000054606461F20C002FFF704FD00972278A5
:100B9000002331462846FFF786FF0835641C20787D
:100BA0000028E6D1F8BD10B50246012002E0034658
:100BB000534318460B464C1EE1B2002BF7D110BD33
:100BC000FFB583B007461D4600200290002432E0A6
:100BD000281B401EC1B20A20FFF7E5FF0146009026
:100BE000059800F04FFD0A21019000F04BFD0E46E4
:100BF0000298002810D1681EA0420DDD002E09D1F8
:100C00000C98E1000090C819002320220499FFF7F6
:100C10004AFF0EE0012002900C98009030463030E0
:100C2000C2B2E000C019002301900499FFF73BFF16
:100C300000BF601CC4B2AC42CADB07B0F0BDFFB558
:100C400085B006461C46002004903049079801F004
:100C500053F8029000F0DAFF039000252EE0601BAD
:100C6000401EC1B20A20FFF79EFF01460190039883
:100C700000F008FD0A21029000F004FD0F46A01EBE
:100C8000A8420DD10E98A11EC9000090881900231A
:100C90002E220699FFF707FF681CC5B2601CC4B27C
:100CA0000E98009038463030C2B2E8008019002318
:100CB00002900699FFF7F7FE681CC5B2A542CEDB8D
:100CC00009B0F0BDFFB581B005460E4617463A465D
:100CD00031462846049BFFF73EFC00240BE06100F0
:100CE000491C0B4A505CFFF711FC6100084A505C3C
:100CF000FFF70CFC641C192080018442EFDB05B077
:100D0000F0BD0000A81D0008740300200000C842C8
:100D10009823000810B50420C04300F09CFC2D4926
:100D20002D48006800F0AEFC40B22C49087000204D
:100D300008567D21C900484300B22949088010BDEA
:100D40000146264A0023D3560A465A43254B5A6188
:100D500000229A611A46126901231A43214B1A6133
:100D600000BF204A1069C207D20F002A04D0012216
:100D700012040240002AF4D01A4A126952085200A2
:100D8000184B1A6100229A6170470146144A0023E9
:100D9000D35E0A465A43134B5A6100229A611A469F
:100DA000126901231A430F4B1A6100BF0D4A1069E3
:100DB000C207D20F002A04D0012212040240002AE6
:100DC000F4D0084A126952085200064B1A610022F8
:100DD0009A61704700127A0000000020780300201A
:100DE0007A03002000E000E010B504460920C006A8
:100DF000844209D10121480400F095FB0021012023
:100E0000400400F090FB30E06E48844208D101219C
:100E1000000200F088FB0021200200F084FB24E0A7
:100E20006948844208D10121000200F07CFB0021C6
:100E3000200200F078FB18E06448844209D10121C7
:100E4000080500F070FB00210120000500F06BFB9D
:100E50000BE05F48844208D10121880500F063FB64
:100E600000210120800500F05EFB10BDF0B50A46B0
:100E700000210023002400BF3DE001258D402B46CA
:100E800015681D402C469C4234D11579012D02D0A5
:100E90001579022D16D185684F000326BE40B54353
:100EA000856055794E00B5408668354385608588F4
:100EB00001268E40B5438580858896798E40B6B2EE
:100EC0003543858005684F000326BE40B543056065
:100ED00015794E00B540066835430560C5684F007A
:100EE0000326BE40B543C560D5794E00B540C668FF
:100EF0003543C560491C1029BFD3F0BD3549016099
:100F0000002101710221417100218171C17170477D
:100F100008B5012212040092009A0A430092009A36
:100F2000C261C161009AC261C2690092C269009245
:100F300008BD02460020138A0B40002B01D001207F
:100F400000E0002070470146088A704702460020F2
:100F5000938A0B40002B01D0012000E00020704755
:100F60000146888A70478161704701857047002A71
:100F700001D0816100E00185704781827047F0B542
:100F8000002300244D07EE0E1546B5402B46CD102C
:100F9000AE0005462035AD594E07F70E0F26BE4070
:100FA000B543CE10B60007462037BD51CD10AE0078
:100FB0003D46AD591D432C46CD10AD003E46745103
:100FC000F0BD00000004004800080048000C004884
:100FD00000140048FFFF0000FD480068012108439D
:100FE000FB49086008464068FA490840F8494860EB
:100FF00008460068F8490840F54908600846006856
:10100000012189048843F2490860084640683F216D
:1010100009048843EE4948600846C06A0009000197
:10102000C8620846006BFF2154318843E8490863D1
:101030000846406B400840004863002088607047C5
:101040000021E34A917011468870704710B502463E
:101050000021002300205111002902D1DC4C23681B
:101060000BE0012902D1DA4C236A06E0022902D101
:10107000D74C636A01E0D64C636BD106C90E0124DC
:101080008C401C40002C01D0012000E0002010BD4D
:1010900038B5002000900024002500BF1120FFF784
:1010A000D5FF05460098401C0090052109020098D4
:1010B000884201D0002DF1D01120FFF7C7FF002892
:1010C00001D0012400E00024204638BD0146002064
:1010D000BF4A1068F82302469A431046CA001043DC
:1010E000BB4A10607047002806D0B9490968012240
:1010F0001143B74A116005E0B5490968490849003C
:10110000B34A1160704701460020B14A506BF82382
:1011100002469A431046CA001043AD4A50637047D6
:10112000002806D0AA49496B01221143A84A5163FD
:1011300005E0A749496B49084900A54A5163704732
:10114000002806D0A249496B04229143A04A51636A
:1011500005E09F49496B042211439D4A5163704742
:101160009B49096A49084900994A11621146096A6E
:1011700004229143964A11621146096A01431162A1
:1011800070479349096A18229143914A11621146A6
:10119000096A014311627047002806D08C49496AE8
:1011A000012211438A4A516205E08949496A490886
:1011B0004900874A51627047854A52683D231B04A3
:1011C0009A43834B5A601A46526803460B431A43AC
:1011D0007F4B5A607047002807D07D49096801227B
:1011E000120611437A4A116006E079490968012222
:1011F00012069143764A1160704701460020744AF6
:10120000D06A0009000102460A431046704AD062C3
:101210007047002807D06E4909680122D2041143A3
:101220006B4A116006E06A4909680122D2049143C1
:10123000674A116070476649C871704701460020CF
:10124000634A50688008800002460A431046604A9C
:10125000506070475E4840680C2108407047014666
:1012600000205B4A5068F02302469A43104602462B
:101270000A431046564A5060704701460020544ABF
:10128000506807231B0202469A43104602460A434F
:1012900010464F4A506070474D49496801229203F9
:1012A00091434B4A51601146496882B21143484A02
:1012B00051601146096B92159143454A11631146DD
:1012C000096B020C1143424A116370474049096B94
:1012D000402291433E4A11631146096B0143116359
:1012E00070473B49096B10229143394A11631146FB
:1012F000096B0143116370473549096B89088900FF
:10130000334A11631146096B014311637047FEB5FF
:1013100004460025002600200190009000272C485C
:1013200040680C2108400546002D04D0042D05D04E
:10133000082D28D105E02948206027E027482060B3
:1013400024E0234840680F218904084006462048CD
:1013500040680121090408400190B00C861C0198E6
:10136000002803D11E48704320600BE01848C06A73
:101370000007000F401C00901848009900F082F907
:101380007043206002E01548206000BF00BF104895
:101390004068F021084005462D091248475D206845
:1013A000F84060600A484068072109020840054685
:1013B0002D0A0C48475D6068F840A0600448006B47
:1013C000FF2101310840884210D00748E0601BE04F
:1013D000001002400CB8FFF8FFFFF6FE00127A0082
:1013E00000093D007C030020809FD50075484068BF
:1013F000012189030840884203D0A0684008E060CA
:1014000002E0A0688008E0606E48006B4021084060
:10141000402802D06C48206102E00120C003206116
:101420006848006B10210840102802D067486061AE
:1014300001E0206860616348006B8007800F00282E
:1014400002D1A068A06119E05E48006B8007800FA0
:10145000012802D12068A06110E05A48006B800783
:10146000800F022802D18003A06107E05548006B7D
:101470008007800F032801D15448A061FEBD514967
:10148000096A01434F4A11627047002807D04D494D
:10149000096A0122D20311434A4A116206E049490E
:1014A000096A0122D2039143464A1162704700281B
:1014B00007D04449096A012212041143414A1162CA
:1014C00006E04049096A0122120491433D4A116233
:1014D0007047002905D03B4A52690243394B5A6193
:1014E00004E0384A52698243364B5A6170470029FA
:1014F00005D0344A92690243324B9A6104E0314A82
:10150000926982432F4B9A617047002905D02D4A7A
:10151000D26902432B4BDA6104E02A4AD269824342
:10152000284BDA617047002905D0264A926A0243A7
:10153000244B9A6204E0234A926A8243214B9A62C6
:101540007047002905D01F4AD26802431D4BDA605C
:1015500004E01C4AD26882431A4BDA6070470029C3
:1015600005D0184A12690243164B1A6104E0154A65
:1015700012698243134B1A617047002905D0114A42
:10158000527A02430F4B5A7204E00E4A527A824357
:101590000C4B5A7270470B48406A012109060843F8
:1015A00008494862704701460020064A92680A408E
:1015B000002A01D0012000E0002070470149887214
:1015C00070470000001002401280000000127A00F4
:1015D00000218278002A27D0274A03231B02D21831
:1015E00003789B109B00D15802789207D30EFF22FC
:1015F0009A400B469343194642789207120E03789D
:101600009B07DB0E9A4011431B4A03231B02D2188F
:1016100003789B109B00D1500278D306DB0E012289
:101620009A40154B1A6007E00278D306DB0E0122C0
:101630009A40114B80331A607047002905D00F4A39
:10164000126902430D4B1A6104E00C4A126982438D
:101650000A4B1A617047042806D109490969042216
:101660001143074A116105E00549096904229143C4
:10167000034A11617047000000E100E000ED00E066
:1016800000E000E0002203098B422CD3030A8B42C6
:1016900011D300239C464EE003460B433CD400226A
:1016A00043088B4231D303098B421CD3030A8B427C
:1016B00001D394463FE0C3098B4201D3CB01C01A4A
:1016C000524183098B4201D38B01C01A5241430915
:1016D0008B4201D34B01C01A524103098B4201D303
:1016E0000B01C01A5241C3088B4201D3CB00C01A70
:1016F000524183088B4201D38B00C01A52414308E8
:101700008B4201D34B00C01A5241411A00D201460C
:101710005241104670475DE0CA0F00D049420310A5
:1017200000D34042534000229C4603098B422DD3F4
:10173000030A8B4212D3FC22890112BA030A8B429C
:101740000CD3890192118B4208D3890192118B42EB
:1017500004D389013AD0921100E08909C3098B4270
:1017600001D3CB01C01A524183098B4201D38B01B3
:10177000C01A524143098B4201D34B01C01A524156
:1017800003098B4201D30B01C01A5241C3088B429B
:1017900001D3CB00C01A524183088B4201D38B0086
:1017A000C01A5241D9D243088B4201D34B00C01A10
:1017B0005241411A00D20146634652415B10104625
:1017C00001D34042002B00D54942704763465B106D
:1017D00000D3404201B50020C046C04602BD70475C
:1017E000704770470246C80FC00781434B0030B5B1
:1017F0004B405B009B0D20D01923DB06C918012349
:101800001B05994220DB0324A40704251346AB40A3
:101810000BD3002B04D1EB0613409B00E34204D40E
:1018200001246407002312195941FF231B05994223
:101830000BD2C9000143500F09E0CB0204D501438C
:101840000803024305D0054830BDFF21C905084300
:1018500030BD084607210905884330BD0000C07F20
:10186000F0B50C46871A9C410D46861A9D4103D25D
:10187000C01BA141D21963410D0D1F0DC94EEC1BB8
:10188000AE435CD07F057F0D0026002F51D02D0583
:10189000AC46A943DD020123ED0A1B051D432023AD
:1018A0001B1B24D41746E740381871412F46E740E8
:1018B000CC199D402818314661410C0D27D1614457
:1018C0009A4013D50023401C594152000ED14008C4
:1018D000400001224B005205D34207D305204007A8
:1018E000C14201D5B04900E0B0493046F0BD6B00BF
:1018F000002A00D001229A181F23203C1B1B01D56F
:10190000002302E0E540281871410C0DD7D00124D6
:1019100024050919C407CD0740084908E40F2843E6
:101920006144002CD5D00024401C61419A40D0D1A4
:10193000CDE76A05520DD9D1C90FC907D5E79C4D2E
:101940004E00002801D0012400E0002434195F007B
:10195000002A01D0012600E00026BE19954FAC42B6
:101960000CD8AE420AD8B44206D001256D05EC422F
:10197000BCD010461946F0BD9942FCD00020394633
:10198000F0BDF0B51FB40C460F46811A9F412546A5
:10199000861A9D4106D20125ED076F40401ABC41D1
:1019A00052187B41210D1E0D8D1BAC467D4D8D4384
:1019B0007ED075056D0D7CD00D05AE46AC431B0386
:1019C0001B0B794D52429D41202366469B1B14D32D
:1019D0001746F740381800260090744160462F469D
:1019E0000741E41900989D402818664116D47146B5
:1019F00071189A4025D5012320E093182A466A41A0
:101A00005200002B00D0521C1E23203E9B1B002B9B
:101A100061DD3541EE1728186641E8D5001876419A
:101A20005B1C9A4000D3401C4B05F3181524E3407F
:101A300010D3002B52D071467118D30FC01802D3A7
:101A4000491C05B0F0BD0123DB079A42F9D14008DB
:101A50004000F6E701225205B21801D1002853D008
:101A60000123CC0ADB029943891E002A08D1020C0B
:101A700003D0020C0004103902E002460020203995
:101A80000023550B05D112020823550B01D1520139
:101A90000D23550C01D112011B1DD50C01D1920053
:101AA0009B1C150D01D152005B1C2025EE1A01E094
:101AB0002CE022E00546F54015439840CA1AE1079C
:101AC00069181305C918002ABBDA03204007081853
:101AD000C10FC9070FE071466118B2E7F10740086E
:101AE0000843711071444A000CD001235B059A42EF
:101AF000A7D2C90FC9070020A3E74905490D26D180
:101B0000002001E00028F4D100219AE7284D66006A
:101B1000002801D0012100E0002171185F00002A97
:101B200001D0012600E00026BE19224FA94210D89C
:101B3000AE420ED8B14208D001256D05E94206D06B
:101B40001946A802414010467BE79C4201D021463D
:101B500077E70020394674E710B50C465C4005D5A0
:101B60000124E4076340FFF70CFF10BDFFF778FE88
:101B700010BD30B40C465C4004D50124E40763403A
:101B800030BC6DE630BCFCE670B50124E407614072
:101B90000D465D4002D4FFF763FE70BD6340FFF762
:101BA000F0FE70BDFF0700000000F0FF0000F07FB6
:101BB0000000E0FF0000F87F0121C9050123411862
:101BC00042001B06D3185B0E0AD0C1100722D206B2
:101BD000891840075242D14201D5520089187047F6
:101BE000090208D50146002A03D0C10FC907002009
:101BF000704710467047420202D0002002497047E9
:101C0000072109050143F4E70000F87F0102C2152E
:101C100004D00123DB071943002A0ADB9E239A1A0A
:101C200002D40846D0407047FF224100120691427C
:101C300001D900207047C017C0437047754600F0B7
:101C400025F8AE46050069465346C008C0008546E3
:101C500018B020B5FEF71AFC60BC00274908B6464C
:101C60000026C0C5C0C5C0C5C0C5C0C5C0C5C0C5AB
:101C7000C0C5403D49008D46704710B50446C0467A
:101C8000C0462046FEF759FA10BD000000487047D4
:101C90008C03002001491820ABBEFEE7260002009D
:101CA000704770B58C180578401C6B075B0F01D12D
:101CB0000378401C2A1106D10278401C03E0067804
:101CC000401C0E70491C5B1EF9D12B0705D4002364
:101CD000521E0DD40B70491CFAE70378401CCB1A36
:101CE000921C03E01D780D70491C5B1C521EF9D537
:101CF000A142D8D3002070BD70B5420064414B00B2
:101D00005C41120E39D01B0E38D0FF2A3CD0FF2B7D
:101D10003AD040024902400A490A060045184E439B
:101D2000000A090AD2184843ED017F3A0104731AE8
:101D30004019190C4318990F04D001215B08490779
:101D40005B1A521CD80904D3401CF50301D19D062F
:101D500007D0FF2A08D2D50506D0E4072043401952
:101D600070BD0125A843F4E7002A01DCE00770BD3F
:101D70002402FF202043C00570BD1B0EFF2A03D0A4
:101D8000FF2B01D0E00770BDFF2645003606B542A7
:101D900006D84D00B54203D8D218FF2A00D0E7E795
:101DA000004870BD0000C07F00000000000000007F
:101DB00000000000000000000000000808080808FB
:101DC000080800001818000000486C2412000000E9
:101DD00000000000000000000000002424247F1206
:101DE00012127F12121200000000081C2A2A0A0C8C
:101DF0001828282A2A1C0808000000222515151575
:101E00002A585454542200000000000C1212120AE6
:101E100076252911916E00000006060403000000DB
:101E2000000000000000000000402010100808081A
:101E300008080810102040000002040808101010C4
:101E400010101008080402000000000008086B1CB5
:101E50001C6B0808000000000000000008080808CB
:101E60007F080808080000000000000000000000D3
:101E7000000000000606040300000000000000004F
:101E8000FE00000000000000000000000000000054
:101E900000000000060600000000804040202010E6
:101EA0001008080404020200000000182442424204
:101EB0004242424224180000000000080E080808B0
:101EC00008080808083E00000000003C424242208A
:101ED00020100804427E00000000003C424220180E
:101EE00020404042221C0000000000203028242412
:101EF00022227E20207800000000007E0202021ACA
:101F000026404042221C0000000000382402021A31
:101F100026424242241800000000007E22221010B7
:101F200008080808080800000000003C424242245B
:101F300018244242423C0000000000182442424261
:101F400064584040241C00000000000000001818E5
:101F50000000000018180000000000000000000849
:101F600000000000000808040000004020100804E1
:101F700002040810204000000000000000007F0064
:101F800000007F0000000000000000020408102094
:101F900040201008040200000000003C424246407D
:101FA00020101000181800000000001C225A55557F
:101FB00055552D42221C000000000008081814147A
:101FC000243C224242E700000000001F2222221E81
:101FD00022424242221F00000000007C42420101D6
:101FE00001010142221C00000000001F2242424267
:101FF00042424242221F00000000003F4212121ED5
:1020000012120242423F00000000003F4212121E24
:1020100012120202020700000000003C222201010D
:1020200001712122221C0000000000E742424242CE
:102030007E42424242E700000000003E08080808D5
:1020400008080808083E00000000007C101010106E
:10205000101010101010110F0000007722120A0E3D
:102060000A12122222770000000000070202020278
:1020700002020202427F0000000000773636363648
:102080002A2A2A2A2A6B0000000000E346464A4A10
:1020900052525262624700000000001C224141413E
:1020A00041414141221C00000000003F42424242A7
:1020B0003E020202020700000000001C22414141D2
:1020C00041414D53321C60000000003F4242423EFD
:1020D0001212222242C700000000007C4242020489
:1020E00018204042423E00000000007F49080808D6
:1020F00008080808081C0000000000E742424242AD
:1021000042424242423C0000000000E74242222498
:1021100024141418080800000000006B49494949BC
:102120005555362222220000000000E742242418E0
:102130001818242442E7000000000077222214141B
:1021400008080808081C00000000007E212010106C
:1021500008040442423F0000007808080808080804
:1021600008080808080878000000020204040808AB
:102170000810102020204040001E101010101010D9
:102180001010101010101E00003844000000000055
:10219000000000000000000000000000000000003F
:1021A00000000000000000FF000608000000000022
:1021B0000000000000000000000000000000003CE3
:1021C0004278444242FC0000000000030202021A6E
:1021D00026424242261A000000000000000000389B
:1021E0004402020244380000000000604040407891
:1021F0004442424264D80000000000000000003C5D
:10220000427E0202423C0000000000F08808087E86
:1022100008080808083E0000000000000000007CDC
:1022200022221C023C42423C000000030202023A0D
:102230004642424242E700000000000C0C00000E43
:1022400008080808083E0000000000303000003890
:10225000202020202020221E000000030202027203
:10226000120A1612227700000000000E0808080863
:1022700008080808083E0000000000000000007F79
:102280009292929292B70000000000000000003B82
:102290004642424242E70000000000000000003CCD
:1022A00042424242423C0000000000000000001B8D
:1022B00026424242221E0207000000000000007871
:1022C00044424242447840E00000000000000077B1
:1022D0004C040404041F0000000000000000007C07
:1022E00042023C40423E0000000000000008083E60
:1022F0000808080808300000000000000000006323
:102300004242424262DC000000000000000000E7A0
:10231000422424140808000000000000000000EB24
:1023200049495555222200000000000000000076B7
:1023300024181818246E000000000000000000E7B8
:102340004224241418080807000000000000007E42
:1023500022100808447E000000C020202020201009
:10236000202020202020C00010101010101010106D
:10237000101010101010101000060808080808109F
:1023800008080808080806000C32C2000000000017
:102390000000000000000000FFFFFFFFFFFFFFFF45
:1023A000FFFFFFFFFFFFFFFFFFFFFFFFFFFFFFFF3D
:1023B000FFFFFFFFBEF77DEFBAD6B6B5F39CB29430
:1023C000B39CB29434A5F7BDFBDE7DEFFFFFFFFFAA
:1023D000FFFFFFFFFFFFFFFFFFFFFFFFFFFFFFFF0D
:1023E000FFFFFFFFFFFFFFFFFFFFFFFFFFFFFFFFFD
:1023F000FFFFFFFFFFFFFFFFFFFFFFFFFFFFFFFFED
:10240000BEF7FBDEF39CCB5AC73904218210421081
:102410004210410883184529C7390C6375AD3CE764
:10242000BEF7FFFFFFFFFFFFFFFFFFFFFFFFFFFF05
:10243000FFFFFFFFFFFFFFFFFFFFFFFFFFFFFFFFAC
:10244000FFFFFFFFFFFFFFFFFFFFFFFFFFFF3CE777
:10245000B2940842C318821004214529863186317E
:10246000863186314529042182104108C31808426B
:10247000F39C3CE7FFFFFFFFFFFFFFFFFFFFFFFFB6
:10248000FFFFFFFFFFFFFFFFFFFFFFFFFFFFFFFF5C
:10249000FFFFFFFFFFFFFFFFFFFFFFFFFBDE0C6300
:1024A000C318C3184529C7390842084208420842E0
:1024B00008420842C739C7398631863104214108AC
:1024C0008210CB5ABAD6FFFFFFFFFFFFFFFFFFFFCF
:1024D000FFFFFFFFFFFFFFFFFFFFFFFFFFFFFFFF0C
:1024E000FFFFFFFFFFFFFFFFFFFFFBDECB5A821066
:1024F0004529C73908420842094A494A494A494ACE
:10250000494A494A0842C739C739C7398631452936
:1025100083180000C84138C6FFFFFFFFFFFFFFFF21
:10252000FFFFFFFFFFFFFFFFFFFFFFFFFFFFFFFFBB
:10253000FFFFFFFFFFFFFFFF7DEF8E738210452936
:10254000C7390842094A8A523084CF7B8A52494AA5
:102550004A52494ACB5ACF7B0C630842C73986316D
:102560004529C3180000494ABAD6FFFFFFFFFFFF05
:10257000FFFFFFFFFFFFFFFFFFFFFFFFFFFFFFFF6B
:10258000FFFFFFFFFFFFFFFFF39CC3180421C739C4
:102590000842494A494A72947DEF7DEFB2944A520B
:1025A000494A8A5275ADBEF7BAD64D6BC739C7399D
:1025B00086314529C3184108CF7B7CE7FFFFFFFF29
:1025C000FFFFFFFFFFFFFFFFFFFFFFFFFFFFFFFF1B
:1025D000FFFFFFFFFFFFBAD608428210C73908424B
:1025E000494A494A8E73FBDEFFFFBEF7BAD68E73A7
:1025F000084230843CE77DEFFFFFB6B5494AC73952
:1026000086314529042141084529B6B5FFFFFFFF62
:10261000FFFFFFFFFFFFFFFFFFFFFFFFFFFFFFFFCA
:10262000FFFFFFFFBEF7718C410845290842494A68
:10263000494A4A52B294BEF7BEF7B294CF7BCF7BE1
:10264000494AB6B5F39C0C6338C6BAD60C638739D1
:10265000C73986314529C318410830847DEFFFFF13
:10266000FFFFFFFFFFFFFFFFFFFFFFFFFFFFFFFF7A
:10267000FFFFFFFF3CE7CB5A4108C7390842494AF0
:102680004A528A52F39CFFFF7DEFC739C3180C638F
:10269000CB5AB6B5B294CB5A75ADFAD64D6B8739D5
:1026A000C73986314529042141088A5279CEFFFF76
:1026B000FFFFFFFFFFFFFFFFFFFFFFFFFFFFFFFF2A
:1026C000FFFFFFFF38C686310421C841494A494A05
:1026D0004A52494AB18CBEF7BEF7B294CF7BCF7B4A
:1026E000494A74A57DEF7CE7BEF779CE0C63C73904
:1026F000C7398631452904218210452975ADBEF7B9
:10270000FFFFFFFFFFFFFFFFFFFFFFFFFFFFFFFFD9
:10271000FFFFFFFF34A5821086310842494A494A2B
:102720008A52494A4D6BBAD6FFFFFFFF79CE0D633F
:10273000C739CF7B7DEFFFFFFFFF75AD08428631C4
:10274000C739863145294529C318C318B2947DEF8E
:10275000FFFFFFFFFFFFFFFFFFFFFFFFFFFFFFFF89
:10276000FFFFBEF7B28C4108C7390842494A494ABF
:102770008A528A524A4AD07B7AC67BBE906BC9394C
:102780008831C939B384BBC6F8B5CC5A8631C7394C
:10279000C739863145294529C420410830843CE7A2
:1027A000FFFFFFFFFFFFFFFFFFFFFFFFFFFFFFFF39
:1027B000FFFF3CE78A4AC310C7390842494A494AE1
:1027C0004A4A4A42093A084A096B497BC67A058354
:1027D0004683C57AC672097B485A87318821882981
:1027E0008631863145294529042141084A4ABAD60D
:1027F000FFFFFFFFFFFFFFFFFFFFFFFFFFFFFFFFE9
:10280000FFFFF7C582500541C7290842494A4A429D
:10281000494A097B889BC6B321D4A0DCE1E461ED81
:1028200061ED21EDA0E420DC80CB43ABC482065AED
:102830004721462945290429041982108218F39C4E
:102840007DEFFFFFFFFFFFFFFFFFFFFFFFFFFFFF2A
:102850007DEF4D9300A082B8C7310932494A867A8C
:1028600043C36BEDF4F6EBFD20FD20FD60FDA0FD04
:10287000A0FD60FD60FD20FDE0FCA0FC60F4C1DB7C
:10288000839AC54945290419C42082380050CB6A6F
:10289000BAD6FFFFFFFFFFFFFFFFFFFFFFFFFFFFB6
:1028A000FBEE04A100C000F0C3A0C8414942059B53
:1028B00020FCA4FC69FDE8FD63FD20FD60FD60FDDA
:1028C00060FD20FD20FDE0FCE0FCA0FC60FC20FCA5
:1028D00041D3C5494519C438826841880070495AB6
:1028E00079CEFFFFFFFFFFFFFFFFFFFFFFFFFFFFAF
:1028F000FBF682C000D086C146F141C845798952B5
:102900008862866AC67AC4BBE1FC60FD60FDA0FDFA
:10291000A0FD60FD60FDE0FC60E403938472446A06
:10292000C5414529C35841A8409800B000600C6BD0
:1029300079CEFFFFFFFFFFFFFFFFFFFFFFFF7DEFF0
:10294000CE83828800F8C4D80CF38AFA82E882B079
:102950004569C7510842083A865A839BA2BC22CDDA
:1029600021CDA1C422B4C47A063A8629452905316D
:10297000C450419000C000A800A000A800304A4AFE
:10298000BAD6FFFFFFFFFFFFFFFFFFFF7DEF8E7354
:10299000C318053982A800F8C3F84DFB4DFBC7F9F1
:1029A000C3F082D8C3B00481456146518649864947
:1029B000464145414541454105490461829041B048
:1029C00000D000C800A800A800B8415882108210AA
:1029D000B294BEF7FFFFFFFFFFFFBEF7CF7B821071
:1029E000042186298641049940E841F886F9CBFA0A
:1029F00049FA82F800F800F000E841D841D041C01F
:102A000041C041C041C041C800D000E000E000D852
:102A100000D000B800A841888248821082100000CF
:102A2000452979CEFFFFFFFFBEF7F39C8210C31844
:102A300045298631C731307CF3DC86E100F000F8AF
:102A400041F841F800F800F800F800F800F800F844
:102A500000F800F800F800F800E800E000E000D816
:102A600000C841A08A9A0C630411821082104108A8
:102A700000004D6B7DEFFFFFFBDE08424210452951
:102A800086318631494A38BEFFFF38D686A900C84C
:102A900000E000F000F800F800F800F800F800F896
:102AA00000F800F800F000F000E800E000D0C39863
:102AB0008A8AB2A4BAC6F7B5084241088210410812
:102AC00000004529F7BDFFFF718C4108042145290D
:102AD000863186310C633CE7FFFF79D646B900E0CA
:102AE00042C882A882B041D882E882F041E841E839
:102AF00041E841F041E841D804C108924D8B34A52A
:102B0000FBC6FBD6BACE3CE73084C3184108410867
:102B100000004108CF7B7DEF494A00000421452990
:102B2000463186313084FFFFFFF7F7DD09DA83F89D
:102B300001F042C08298499AF3B4F3CC71BC8EBBC9
:102B40008EBB30BC71BCF3BCB6BDFBCEBEE77DE72F
:102B50003BDFBAD679CEFBDE75AD86314108410840
:102B600000000000494AFBDE0421410804214529F8
:102B700045298739B294FFFFBEF734DD0CEB09FA23
:102B800000F001D800D88BD27DE7FFFFFFFFFFFFE9
:102B9000FFFFFFFFFFFFFFFFFFFFBEFF7DEFFBDE3D
:102BA000FBDEBAD679CEBAD678C6C739000041085E
:102BB00000000000C73979CE00008210C31804213C
:102BC00005298631B39CFFFFFFF775DDC7E9C7F91B
:102BD00001F801F000E849E2FBEEFFFFFFFFFFFF15
:102BE000FFFFFFFFFFFFFFFFFFFFBEF77DEFFBDEF5
:102BF000FBDEBAD679CEBAD6B9CE084200000000C4
:102C000000000000C73938C600008210821004217D
:102C1000042145293084FFFFFFFF38DEC4D000F0D7
:102C200001F800F800F008D2FBE6FFFFFFFFFFFF0E
:102C3000FFFFFFFFFFFFFFFFFFFFBEF77DEFFBDEA4
:102C4000BAD679CE79CEBAD679CEC7394108000046
:102C500000000000863138C600000000C318CB5ABF
:102C60008631C318CB5A7DEFFFFF7DEFCFBBC3B0DA
:102C700041D041D082B84DB37DE7FFFFFFFFFFFF9A
:102C8000FFFFFFFFFFFFFFFFBEF7BEF73DEFFBDEDD
:102C9000BAD679CE79CEFAD6F7BD04218631042191
:102CA00000000000863138C68631C318CB5A75AD96
:102CB000CF7B41088631F7BDFFFFFFFFBEEF74B544
:102CC000309C309C72A4BBD6FFFFFFFFFFFFFFFFCD
:102CD000FFFFFFFFFFFFFFFFBEF77DEF3CE7FBDEDF
:102CE000BAD679CE79CE3CE7718C81080C63CF7B64
:102CF000821000008A5238C675AD718CB6B53CE7BB
:102D0000FBDEC7390000CF73FFFFFFFFFFFFFFFFB0
:102D1000FFFFFFFFFFFFFFFFFFFFFFFFFFFFFFFFC3
:102D2000FFFFFFFFFFFFBEF77DEF7DEF3BDFFAD632
:102D300079CE79CEFBDEB9CEC739C420718CBAD634
:102D4000718CCB5AB294BAD6FFFF7DEF7DEFFFFFB7
:102D5000FFFFB6B54629051975A5FFFFFFFFFFFF69
:102D6000FFFFFFFFFFFFFFFFFFFFFFFFFFFFFFFF73
:102D7000FFFFFFFFFFFFBEF77DEF3CE7FBDEBAD6AC
:102D800079CEBAD6FCDE4E6342080C63F7BDBEF7BF
:102D9000FFFFFBDEFBDEBEF7FFFFFFFFFFFFFFFFD6
:102DA000FFFFFFFFF49C04210521B6A5FFFFFFFFF5
:102DB000FFFFFFFFFFFFFFFFFFFFFFFFFFFFFFFF23
:102DC000FFFFBEF7BEF77DEF3CE7FBDEBAD679CE5C
:102DD000FBDEBBD6D17383188639349DBDEFFFFF70
:102DE000FFFFFFFFFFFFFFFFFFFFFFFFFFFFFFFFF3
:102DF000BEFF35D6EBCC43B340510519F58CBEEF81
:102E0000FFFFFFFFFFFFFFFFFFFFFFFFFFFFBEF71B
:102E1000BEF77DEF7DEF3CE7FBDEBADEBAD63CDFE6
:102E20003ABE4F63824940A323B4CC833ABEFFFF2E
:102E3000FFFFFFFFFFFFFFFFFFFFFFFFFFFFBFF7EA
:102E4000B5BD829220F4A0FC60E4408284418F6B87
:102E500077AD3DE7FFFFFFFFFEFFBEF7BEF7BEF712
:102E60007DEF7DEF3CE7FBDEFBDE3DE7BBCE369D35
:102E70000B6B416A60C420FE60F5008BC76A38C6E0
:102E8000BEF7FFFFFFFFFFFFFFFFFFFFFFFF7DEF2D
:102E90004B7B80B2A0FCA0FCE0FCE0FCC0CBC18A74
:102EA00045624D6BB394F7BD3DDFFFF7FFFFBEF703
:102EB0007DEF7DEF7DE73DDFBAC675A58D7B847A1A
:102EC00040B3E0ECE0FDE0FD60F520E5A0D40A6B46
:102ED000FBDEFFFFFFFFFFFFFFFFFFFFFFFF7DEFB9
:102EE000CC9340EB60FCA0FCE0FC20FD60FD20F5F5
:102EF000A0D4C0BB429B458B6B9CAE9C718CB394A1
:102F0000339D34A5F2A4F0B4CA9B049B40BB20E4DB
:102F100020FDA0FDA0FDE0FDE0FDE0FD20C4885AFD
:102F200038BEFFFFFFFFFFFFFFFFFFFFFFFFFFFFB9
:102F300078D646AB40DB20F460FCA0FCE0FC60FDF2
:102F4000A0FD60FD20F5A0DCC0B3C05186290D6353
:102F50008F7B0D5BC741018200C3C0E360FCA0FC16
:102F6000E0FCE0FC60F560F520E5809B8662308443
:102F700079CEFFFFFFFFFFFFFFFFFFFFFFFFFFFF18
:102F8000FFFF38C62D9C059343A382B3C2BBC2BBCF
:102F900022B482A34293C37A85620B637184B6B56F
:102FA00079CE79C6B5AD70944A8B06830493049BA1
:102FB000439B439B4393048308738D73B39479CEEF
:102FC0007DEFFFFFFFFFFFFFFFFFFFFFFFFFFFFFA3
:102FD000FFFFFFFF3CDF38BE75B533A533A5F39C7B
:102FE000F39CF39CF394F39C35A5F8BDFBDEBEF790
:102FF000FFFFFFFFFFFF7EEFBBD6F8BDB6AD75AD9F
:1030000034A5339D349D35A5B7AD79C63CE7BEF7F1
:10301000FFFFFFFFFFFFFFFF383000080000002028
:103020008C030000A21C0008F43100088C0300206F
:10303000640600000401000811846CDC02900901A0
:10304000020304060708092A8004FA0104080D1A7D
:103050001080010CF0FFFF0F308001040419246A76
:10306000070C09124809100401131A011914FFFF73
:10307000011A03082904E90C3381812A0304261C60
:10308000FCFFFF3F1A400B5AC0282AC00C49041B02
:10309000FFFF4C22411A0468230E711B07815A144A
:1030A000010760100B010E1898011C04E0011819AB
:1030B00027F11A08C4231F304A0C046809100C3089
:1030C000FE3F0C30041069041BC00C281E0D30306C
:1030D000060E049C0C3010044B18860410120806CF
:1030E0000D300C860D3006EE0F3002FC0D30015B0A
:1030F0000CF040193C2A0F081A109ED1299019CBC8
:103100004908890417E0FFFF0360C009130409168A
:103110001C59181A010429441A08045A100419F8F1
:10312000130138041780FF1F2603C0FFFF071A8012
:1031300004293D326032181A0C135A030419A41CD6
:10314000800108045E1CFCFFFF3F100928041AFCE4
:103150000432E062405A80026DFC1F841002290C88
:1031600069184DF80F080804128023FF7F290C49C5
:103170000E2D8410A22045280FFE3F0220F22702C8
:10318000200220FA2F2221022809122912290A2EB0
:1031900002201AC95E9908165080408040195213C7
:1031A000FE1F120812042C02800162697829021A9B
:1031B000A0A518161008B8080F0908090808BF08C4
:1031C00008091C092C080A78CA1179012A04023C52
:1031D000C87F3F08180BA83F18210C110B12080AD2
:1031E0000EC60A8A1164602D01020304040500065C
:0431F00007080900C3
:040000050800047972
:00000001FF
